:0E033B00436C6F636B3A0020203A20203A009A
:100103001203171202D57BFF7A03793B7D017F012E
:100113001202777BFF7A0379427D017F0212027715
:10012300E51BFB7A00750C027D017F021202B8E524
:100133001CFB7A00750C027D047F021202B8E51ADB
:0F014300FB7A00750C027D077F021202B880D193
:03000B000201529D
:04015200C0E0C0D079
:10015600758A66758CFC0519E51970020518C39435
:10016600E8E51894034027751800751900051AE587
:100176001A943C4019751A00051CE51C943C400E67
:0E018600751C00051BE51B94184003751B003B
:05019400D0D0D0E032E4
:1002D5005389F0438901758A66758CFCC28DD28C71
:0702E500D2A9D2AFC2B92279
:1000A200E4F52720B1137F14FE12030230B1FD7F65
:1000B200147E0012030275270120B0147F147E0003
:1000C20012030230B0FD7F147E0012030275270274
:1000D20020B2147F147E0012030230B2FD7F147E20
:1000E2000012030275270320B3147F147E0012034B
:1000F2000230B3FD7F147E00120302752704AF277E
:0101020022DA
:10030200EF4E6010007D027CC7DCFEDDFCEF1F704B
:04031200EF1E80EC6E
:0103160022C4
:06032B00C2A58F80D2A7DD
:09033100007F027EC7DEFEDFFC46
:01033A0022A0
:0A035500C2A612032BC2A702033157
:10029A00CFCDCFCECCCE12004D7C007D0A12004DC0
:0402AA00ED2430FF10
:0A02AE00D2A612032BC2A7020331EF
:1002EC00AE07BE0104ED148006BE0209ED243F44A6
:0602FC0080FF12035522F1
:100317007F381203557F0C1203557F061203557F52
:040327000102035577
:0A035F00AC031202ECAF040202AE80
:060277008B088A09890AC8
:10027D001202ECE4FDAB08AA09A90A8D8275830070
:0C028D0012000EFF60061202AE0D80E9A8
:010299002242
:0C0244007F0AEA24FFFDE434FFFC7E008A
:080250008E0D8F0E8C0F8D1036
:100258007F017E00E4FBEBC39510E50F6480F87422
:0E0268008098500AAC0DAD0E12003B0B80E8E2
:010276002265
:0402B8008A0A8B0B18
:1002BC001202ECAA0CEAD39400400D120244AC0AD0
:0802CC00AD0B12029A1A80ED3D
:0102D4002207
:100199001202ECC3EA64809480400B7F2B1202AEFA
:1001A9008A168B17800E7F2D1202AEC3E49BF517BA
:1001B900E49AF516AA15EAD39400400D120244AC4C
:0901C90016AD1712029A1A80ED1E
:0101D200220A
:0401D3008A1F8B20D4
:1001D7001202ECAA21EAD3940040297F10120246AA
:1001E700AC1FAD20CFCDCFCECCCE12004DEF540FEC
:1001F700FEC3940AEE5004243080022437FF120213
:04020700AE1A80D1DA
:01020B0022D0
:04020C008A248B2590
:100210001202ECAA26EAD394004028EA24FFFDE467
:1002200034FFFC7F027E00120250AC24AD25CFCDFE
:10023000CFCECCCE12004DEF54012430FF1202AECF
:030240001A80D24F
:010243002298
:03000000020349AF
:0C034900787FE4F6D8FD758127020103DF
:10000E00BB010CE58229F582E5833AF583E02250A7
:10001E0006E92582F8E622BBFE06E92582F8E222F1
:0D002E00E58229F582E5833AF583E493220B
:10003B00EF8DF0A4A8F0CF8CF0A428CE8DF0A42ED9
:02004B00FE2293
:10004D00BC000BBE0029EF8DF084FFADF022E4CC97
:10005D00F875F008EF2FFFEE33FEEC33FCEE9DEC60
:10006D00984005FCEE9DFE0FD5F0E9E4CEFD22EDA6
:10007D00F8F5F0EE8420D21CFEADF075F008EF2FF0
:10008D00FFED33FD4007985006D5F0F222C398FDE1
:05009D000FD5F0EA227E
:00000001FF
