:10049900EF4E6010007D027CC7DCFEDDFCEF1F70B3
:0404A900EF1E80ECD6
:0104AD00222C
:0604C200C2A58F80D2A745
:0904C800007F027EC7DEFEDFFCAE
:0104D1002208
:0A04DE00C2A61204C2C2A70204C89D
:10044800CFCDCFCECCCE1202BA7C007D0A1202BA32
:04045800ED2430FF60
:0A045C00D2A61204C2C2A70204C80F
:10048300AE07BE0104ED148006BE0209ED243F440D
:0604930080FF1204DE22CE
:1004AE007F381204DE7F0C1204DE7F061204DE7F1C
:0404BE00010204DE55
:0A04E800AC03120483AF0402045CAD
:060425008B088A09890A18
:10042B00120483E4FDAB08AA09A90A8D8275830027
:0C043B0012027BFF600612045C0D80E9D9
:010447002292
:0C03F2007F0AEA24FFFDE434FFFC7E00DB
:0803FE008E0D8F0E8C0F8D1087
:100406007F017E00E4FBEBC39510E50F6480F87472
:0E0416008098500AAC0DAD0E1202A80B80E8C3
:0104240022B5
:040466008A0A8B0B68
:10046A00120483AA0CEAD39400400D1203F2AC0AD8
:08047A00AD0B1204481A80EDDD
:010482002257
:10030F00120483C3EA64809480400B7F2B12045C39
:10031F008A168B17800E7F2D12045CC3E49BF51792
:10032F00E49AF516AA15EAD39400400D1203F2AC25
:09033F0016AD171204481A80EDF6
:010348002292
:040349008A1A8B1B66
:10034D00120483AA1CEAD3940040297F101203F4EF
:10035D00AC1AAD1BCFCDCFCECCCE1202BAEF540F0F
:10036D00FEC3940AEE5004243080022437FF120499
:04037D005C1A80D1B5
:010381002259
:040382008A1F8B2023
:10038600120483AA21EAD394004028EA24FFFDE45C
:1003960034FFFC7F027E001203FEAC1FAD20CFCDE2
:1003A600CFCECCCE1202BAEF54012430FF12045C39
:0303B6001A80D2D8
:0103B9002221
:1003BA0050617373776F72643A00457874726100A2
:1003CA00506C6561736520496E7075742020200039
:1003DA0052696768740057726F6E67005265736579
:0803EA007400202020202000F7
:10018C001204AE7BFF7A0379BA7D017F011204253C
:10019C00750C04E4FBFA7D017F0212046612000365
:1001AC008F24E52460F7D3940A504AC3E5269404BF
:1001BC00E52594005024AE22AF237C007D0A120268
:1001CC00A8E52475F00A84EF25F0F523EC3EF52222
:1001DC000526E52670110525800D7BFF7A0379C471
:1001EC007D0C7F01120425750C04AB23AA227D0122
:1001FC007F02120466E524640B7031E523452270FE
:10020C000A7BFF7A0379CA7D01801CE523B4F40FC5
:10021C00E522B4160A7BFF7A0379DA7D0C80087B21
:10022C00FF7A0379E07D0C7F01120425E524640C30
:10023C0060030201A9F522F523F525F5267BFF7A4B
:10024C000379E67D0C7F01120425750C04AB23AAFF
:10025C00227D017F021204667FD07E071204997BF7
:0F026C00FF7A0379EC7D0C7F011204250201A9B2
:10000300E4F5087590FFC2932097137F14FE120442
:10001300993097FD7F147E0012049975080120968C
:10002300147F147E001204993096FD7F147E001213
:1000330004997508052095147F147E0012049930E5
:1000430095FD7F147E001204997508092094147F8E
:10005300147E001204993094FD7F147E00120499DB
:1000630075080D7590FFC2922097147F147E0012BD
:1000730004993097FD7F147E0012049975080220BD
:1000830096147F147E001204993096FD7F147E002F
:100093001204997508062095147F147E00120499A2
:1000A3003095FD7F147E0012049975080A2094147C
:1000B3007F147E001204993094FD7F147E00120495
:1000C3009975080E7590FFC2912097147F147E00D6
:1000D3001204993097FD7F147E001204997508036A
:1000E3002096147F147E001204993096FD7F147EAF
:1000F300001204997508072095147F147E001204DA
:10010300993095FD7F147E0012049975080B209495
:10011300147F147E001204993094FD7F147E001224
:10012300049975080F7590FFC2902097147F147E71
:10013300001204993097FD7F147E0012049975080C
:10014300042096147F147E001204993096FD7F14C8
:100153007E001204997508082095147F147E0012FE
:1001630004993095FD7F147E0012049975080C20C4
:1001730094147F147E001204993094FD7F147E0042
:08018300120499750810AF0881
:01018B002251
:030000000204D225
:0C04D200787FE4F6D8FD75812602018CCD
:10027B00BB010CE58229F582E5833AF583E0225038
:10028B0006E92582F8E622BBFE06E92582F8E22282
:0D029B00E58229F582E5833AF583E493229C
:1002A800EF8DF0A4A8F0CF8CF0A428CE8DF0A42E6A
:0202B800FE2224
:1002BA00BC000BBE0029EF8DF084FFADF022E4CC28
:1002CA00F875F008EF2FFFEE33FEEC33FCEE9DECF1
:1002DA00984005FCEE9DFE0FD5F0E9E4CEFD22ED37
:1002EA00F8F5F0EE8420D21CFEADF075F008EF2F81
:1002FA00FFED33FD4007985006D5F0F222C398FD72
:05030A000FD5F0EA220E
:00000001FF
