:10039B00EF4E6010007D027CF5DCFEDDFCEF1F7084
:0403AB00EF1E80ECD5
:0103AF00222B
:0603C400C2A58F80D2A744
:0903CA00007F027EC7DEFEDFFCAD
:0103D3002207
:0A044100C2A61203C4C2A70203CA38
:10037D00CFCDCFCECCCE12018F7C007D0A12018F56
:04038D00ED2430FF2C
:0A039100D2A61203C4C2A70203CAD9
:1003B0007F381204417F0C1204417F061204417FF2
:0403C00001020441F1
:1003D400EDBF0103148002243F4480FF1204412234
:0A044B00AC031203D4AF04020391C6
:06033B008B148A158916DF
:10034100E4FC1203D4AB14AA15A9168C82758300A0
:0C035100120150FF60061203910C80E9BD
:01035D00227D
:0C0309007F0AEA24FFFDE434FFFC7E00C4
:080315008E198F1A8C1B8D1C40
:10031D00E4FB7F01FEEBC3951CE51B6480F8748044
:0D032D0098500AAC19AD1A12017D0B80E842
:01033A0022A0
:04035E008A168B1759
:10036200E4FA1203D4AA18EAD39400400D12030946
:0A037200AC16AD1712037D1A80EDE2
:01037C00225E
:04024A008B828A8396
:10024E00E4FAF522F5231203D4C3E5836480948087
:10025E00400D7F2B12039185832285822380107F90
:10026E002D120391C3E49582F523E49583F522AA1A
:10027E0021EAD39400400D120309AC22AD231203E0
:04028E007D1A80ED68
:010292002249
:040293008A168B1725
:10029700E4FAFC1203D4AA18EAD3940040297F1089
:1002A70012030BAC16AD17CFCDCFCECCCE12018F2C
:1002B700EF540FFCC3940AEC500424308002243717
:0702C700FF1203911A80D120
:0102CE00220D
:0402CF008A268B27C9
:1002D300E4FA1203D4AA28EAD394004028EA24FFBC
:1002E300FDE434FFFC7F027E00120315AC26AD272C
:1002F300CFCDCFCECCCE12018FEF54012430FF12DD
:0503030003911A80D2F5
:0103080022D2
:0F03F400414444522020434D4420204E554D009B
:1001E4001203B07BFF7A0379F47D017F0112033B94
:1001F400120464120403EF7006120411EF60181263
:10020400046A8F2B12046D8F2AE52AB4150215296E
:10021400E52AB409020529E52BFB7A007518027D4D
:10022400027F02120293E52AFB7A007518027D0709
:100234007F02120293E529FB7A007518037D0C7F77
:060244000212035E80AD12
:0B042B00D288C289D2A8D2AFD2B8227A
:1003E4005389F0438901E4F58AF58CC28DC28C22CD
:0B043600AD07AC068C8CAF058F8A224E
:09045500AF8CEFFEAD8AEDFF2231
:06045E00EF24FF928C2246
:060464001203E402042B68
:0E040300E50FB40106E4F50F7F01227F002211
:0E041100E50DB40106E4F50D7F01227F002207
:03046A00AF0C22B2
:03046D00AF0B22B0
:03000300020006F2
:10000600C0E0C0F0C083C082C0D075D000C000C0C0
:1000160001C002C003C004C005C006C007E50870E1
:100026000CFFFE1204367F0112045E8049E5086467
:100036000170491204558E098F0AE4FFFE12043638
:10004600D3E50A94CDE509942E4010E50A9467E5B8
:100056000994325006750802020135D3E50A94B3B5
:10006600E50994264010E50A944DE509942A5006C0
:10007600750D0102012D750801020135E5086402BE
:1000860060030201351204558E098F0AE4FFFE1241
:100096000436D3E50A943BE5099402402BE50A941D
:1000A600D5E50994055021E50E131313541F2410AA
:1000B600F8C000E6FFE50E5407FEF874010880025A
:1000C600C333D8FCF45F8033D3E50A944CE5099436
:1000D60006402FE50A94E6E50994095025E50E1336
:1000E6001313541F2410F8C000E6FFE50E5407FE54
:1000F600F87401088002C333D8FC4FD000F6050E11
:100106008006750E00750801E50EC3942040207523
:100116000E00E511F4B5100FE513F4B512098510BC
:100126000C85120B750F01E4FF12045E750800D0F2
:1001360007D006D005D004D003D002D001D000D01D
:0A014600D0D082D083D0F0D0E03298
:0300000002041FD8
:0C041F00787FE4F6D8FD75812B0201E423
:10015000BB010CE58229F582E5833AF583E0225064
:1001600006E92582F8E622BBFE06E92582F8E222AE
:0D017000E58229F582E5833AF583E49322C8
:10017D00EF8DF0A4A8F0CF8CF0A428CE8DF0A42E96
:02018D00FE2250
:10018F00BC000BBE0029EF8DF084FFADF022E4CC54
:10019F00F875F008EF2FFFEE33FEEC33FCEE9DEC1D
:1001AF00984005FCEE9DFE0FD5F0E9E4CEFD22ED63
:1001BF00F8F5F0EE8420D21CFEADF075F008EF2FAD
:1001CF00FFED33FD4007985006D5F0F222C398FD9E
:0501DF000FD5F0EA223B
:00000001FF
