:10027E0012043D12042B1203E1EF605012043A8F68
:10028E0033E533B41603E4F534E533B40C037534B7
:10029E0001E533B41803753402E533B45E037534E7
:1002AE00030534533403E5347004FF120440E5347F
:1002BE00B401057F32120440E534B402057F4B12BF
:1002CE000440E534B403057F64120440E534FD7C3C
:0802DE00007F01120413809E51
:10000600EF4E6010007D027CC7DCFEDDFCEF1F704A
:04001600EF1E80EC6D
:01001A0022C3
:06034C0001300001310048
:05042500E4AF32F532E6
:01042A0022AF
:1003BB00E4FF20B1010F20B0027F0220B2027F03C5
:0503CB0020B3027F04D5
:0103D000220A
:10038A00E4F5358530311203BB8F30E531600AE57B
:09039A00307006E5316002F53215
:0103A3002237
:100352000C093F065B4F666D7D077F6F00400915F4
:0C036200000A0A0A0A0A0A0A0A01080135
:09041300AE0574152FF8A60622AF
:1002E600E4F580EF14B4080050549002FE75F00354
:1002F600A4C58325F0C5837302031602031A0203FD
:100306001E02032202032602032E02033602033EC6
:10031600D2A4800ED2A48012D2A48016D2A4801AAF
:10032600C2A4D2A3D2A28016C2A4D2A3C2A2800E15
:10033600C2A4C2A3D2A28006C2A4C2A3C2A2740946
:060346002DF8E6F580220F
:10036F0074152508F8E6FD7C00AF081202E60508B3
:0A037F00E508D39408400375080157
:010389002251
:1003A4005389F0438910758BA4758DFFC28FD28E4B
:0703B400D2ABD2AFC2BB22A5
:0B03FD00D288C289D2A8D2AFD2B822A9
:06042B001203D10203FDE3
:0E03E100E525B40106E4F5257F01227F002208
:0E03EF00E523B40106E4F5237F01227F0022FE
:03043700AF2222CF
:03043A00AF2122CD
:0300030002001EDA
:10001E00C0E0C0F0C083C082C0D075D000C000C0A8
:10002E0001C002C003C004C005C006C007E51E70B3
:10003E000CFFFE1204087F011204318049E51E6494
:10004E0001704912041C8E1F8F20E4FFFE1204085B
:10005E00D3E52094CDE51F942E4010E5209467E55E
:10006E001F94325006751E0202014DD3E52094B343
:10007E00E51F94264010E520944DE51F942A500666
:10008E00752301020145751E0102014DE51E640234
:10009E00600302014D12041C8E1F8F20E4FFFE121E
:1000AE000408D3E520943BE51F9402402BE52094F1
:1000BE00D5E51F94055021E524131313541F242650
:1000CE00F8C000E6FFE5245407FEF874010880022C
:1000DE00C333D8FCF45F8033D3E520944CE51F94F2
:1000EE0006402FE52094E6E51F94095025E52413DC
:1000FE001313541F2426F8C000E6FFE5245407FE10
:10010E00F87401088002C333D8FC4FD000F60524E2
:10011E008006752400751E01E524C39420402075C9
:10012E002400E527F4B5260FE529F4B52809852620
:10013E0022852821752501E4FF120431751E00D099
:10014E0007D006D005D004D003D002D001D000D005
:0A015E00D0D082D083D0F0D0E03280
:1003D1005389F0438901E4F58AF58CC28DC28C22E0
:0B040800AD07AC068C8CAF058F8A227C
:09041C00AF8CEFFEAD8AEDFF226A
:06043100EF24FF928C2273
:03043D000203A413
:030440008F2E22DA
:03001B000201F4EB
:1001F400C0E0C0F0C083C082C0D075D000C000C0D1
:0D02040001C002C003C004C005C006C00751
:10021100758BA4758DFF052FE52F75F0648485F02E
:100221002FE52FC3952E5004D2908002C290052B4A
:10023100E52B7002052AC39414E52A940040097540
:100241002A00752B0012036F052DE52D7002052C78
:10025100C394C8E52C94004009752C00752D00123B
:02026100038A0E
:10026300D007D006D005D004D003D002D001D000EF
:0B027300D0D0D082D083D0F0D0E03299
:0300000002016892
:0C016800787FE4F6D8FD7581350201AF08
:1001740002027EE493A3F8E493A34003F68001F221
:1001840008DFF48029E493A3F85407240CC8C3338C
:10019400C4540F4420C8834004F456800146F6DF5B
:1001A400E4800B010204081020408090034CE47E9C
:1001B400019360BCA3FF543F30E509541FFEE49350
:1001C400A360010ECF54C025E060A840B8E493A317
:1001D400FAE493A3F8E493A3C8C582C8CAC583CA42
:1001E400F0A3C8C582C8CAC583CADFE9DEE780BEFA
:01036E00008E
:00000001FF
