:1009CB00543A0054483A00544C3A004F563A4800B7
:0A09DB004F563A4C00202020200067
:10046D00E4FF1208468F0F7F011208468F0AD3E56D
:10047D000F648094FD5016C3E50A64809449400DC5
:10048D00D3E50A6480F8E50F6480985006750F1463
:10049D00750A0F120A89120A317BFF7A0979CB7D11
:1004AD00017F011208EF7BFF7A0979CE7D017F0272
:1004BD001208EF7BFF7A0979D27D097F021208EFCE
:1004CD00E50FFB3395E0FA751A037D047F021207E1
:1004DD0068E50AFB3395E0FA751A037D0C7F02126D
:1004ED000768120AAD7FF47E01120A74120AF48FA6
:1004FD0010120AAD1208768F0E8E0D8D0C8C0BE43A
:10050D00FFFEFDFCAB0EAA0DA90CA80B1201B450F9
:10051D001E7B2D7D037F01120AD0AF0EAE0DAD0CEB
:10052D00AC0B12022D8F148E138D128C1180157B36
:10053D002B7D037F01120AD0850E14850D13850CBA
:10054D0012850B11AF14AE13AD12AC1112027CABB0
:10055D0007AA06751A037D047F011209917B2E7D72
:10056D00077F01120AD0E4FFFE7DC87C42AB14AABE
:10057D0013A912A81112000E12027CE47B64FAF981
:10058D00F81203CD751A027D087F01120991E5104D
:10059D007003020634B4010BD3E50F648094FD5053
:1005AD0002050FE510B40211150FD3E50A6480F8AA
:1005BD00E50F6480985002050FE510B40311050A8C
:1005CD00C3E50F6480F8E50A6480984002150AE5DA
:1005DD0010B4040BC3E50A648094494002150AE582
:1005ED000FFB3395E0FA751A037D047F021207683D
:1005FD00E50AFB3395E0FA751A037D0C7F021207AD
:10060D0068E50FFD3395E0FCE4FF1208CB7F057E16
:10061D0000120A74E50AFD3395E0FC7F011208CB48
:10062D007F057E00120A74AC0FEC120248AB0EAAC5
:10063D000DA90CA80B1201B4600A40087BFF7A09C2
:10064D0079D68019AC0AEC120248AB0EAA0DA90C92
:10065D00A80B1201B450107BFF7A0979DB7D0D7F59
:10066D00011208EF0204F97BFF7A0979E07D0D7F15
:07067D00011208EF0204F96D
:03000B00020710D9
:10071000C0E0C0F0C083C082C0D075D000C000C0AF
:0D07200001C002C003C004C005C006C00730
:10072D00758A18758CFC0509E50970020508C394D6
:10073D0014E508940040097508007509001209E5D3
:10074D00D007D006D005D004D003D002D001D00000
:0B075D00D0D0D082D083D0F0D0E032AA
:060A9D00C2A58F80D2A764
:090AA300007F027EC7DEFEDFFCCD
:010AAC002227
:0A0AC600C2A6120A9DC2A7020AA3ED
:10097300CFCDCFCECCCE12033C7C007D0A12033CFC
:04098300ED2430FF30
:0A098700D2A6120A9DC2A7020AA31D
:100A4800AE07BE0104ED148006BE0209ED243F4442
:060A580080FF120AC62215
:100A89007F38120AC67F0C120AC67F06120AC67F71
:040A990001020AC686
:0A0AD000AC03120A48AF04020987C4
:0608EF008B168A17891820
:1008F500120A48E4FDAB16AA17A9188D8275830064
:0C0905001202FDFF60061209870D80E958
:0109110022C3
:0C0813007F0AEA24FFFDE434FFFC7E00B5
:08081F008E1D8F1E8C1F8D2021
:100827007F017E00E4FBEBC39520E51F6480F8742D
:0E0837008098500AAC1DAD1E12032A0B80E8FB
:010845002290
:040991008A188B191C
:10099500120A48AA1AEAD39400400D120813AC189B
:0809A500AD191209731A80ED6F
:0109AD002227
:10076800120A48C3EA64809480400B7F2B120987E1
:100778008A1B8B1C800E7F2D120987C3E49BF51CF6
:10078800E49AF51BAA1AEAD39400400D120813AC98
:090798001BAD1C1209731A80ED5F
:0107A1002235
:0407A2008A238B24F7
:1007A600120A48AA25EAD3940040297F1012081598
:1007B600AC23AD24CFCDCFCECCCE12033CEF540F1D
:1007C600FEC3940AEE5004243080022437FF120937
:0407D600871A80D12D
:0107DA0022FC
:0407DB008A288B29B4
:1007DF00120A48AA2AEAD394004028EA24FFFDE42B
:1007EF0034FFFC7F027E0012081FAC28AD29CFCD4D
:1007FF00CFCECCCE12033CEF54012430FF12098729
:03080F001A80D27A
:0108120022C3
:100A7400EF4E6010007D027CC7DCFEDDFCEF1F70D2
:040A8400EF1E80ECF5
:010A8800224B
:06000300012B00012C009E
:050AF400E4AF2DF52D1B
:010AF90022DA
:100A5E00E4FF20B1010F20B0027F0220B2027F031B
:050A6E0020B3027F042B
:010A73002260
:1009E500E4F515852B2C120A5E8F2BE52C600AE5A4
:0909F5002B7006E52C6002F52DC3
:0109FE0022D6
:1008CB008F168C178D18120AE47FA01208A2120A39
:1008DB00BAAF161208A2120ABAAF181208A2120A5D
:0408EB00BA020AED56
:020846008F160B
:10084800120AE47FA01208A2120ABAAF161208A26E
:10085800120ABA120AE47FA11208A2120ABA1209ED
:0D086800338F177F01120ADA120AEDAF1765
:010875002260
:090AE400D2A0D2A1C2A0C2A1223D
:070AED00C2A0D2A1D2A02299
:0208A200AD07A0
:1008A400E4FB74807E00A803088006CEA2E713CE82
:1008B40013D8F8FFEDF582EF558224FF92A0D2A160
:0608C400C2A10BBB08DC21
:0108CA00220B
:10093300E4FFFED2A0D2A130A00D7480A8070880E6
:0F09430002C313D8FC4206C2A10FBF08E8AF06DB
:010952002282
:0A0ADA00EF24FF92A0D2A1C2A122D6
:0B0ABA00E4D2A0D2A1A2A033FFC2A191
:010AC500220E
:10091200C2AFD2B7C2B7007FE3DFFED2B7007F1DFE
:10092200DFFEA2B7E433FE007FE3DFFED2AFAF0605
:0109320022A2
:1009FF00C2AFD2B7C2B7007E03DEFEEF24FF92B7BD
:080A0F007E16DEFED2B7D2AF65
:010A170022BC
:10095300C2AFD2B7C2B7007F03DFFED2B7007F01B9
:0F096300DFFEA2B7E433FE7F16DFFED2AFAF0692
:010972002262
:020A1800AD0728
:100A1A00E4FC7401A804088002C333D8FC5DFF1209
:060A2A0009FF0CBC08EC02
:010A300022A3
:1009AE00E4FDFC120953EF600D7401A805088002E6
:0C09BE00C333D8FC42040DBD08E9AF04AF
:0109CA00220A
:0D0AAD001209127FCC120A187F44020A18A9
:100876001209127FCC120A187FBE120A181209AE8C
:100886008F161209AEEFFEE516FFFDAC06EC12025E
:0B08960043E4FBFA798078411201175F
:0108A1002234
:100A31005389F0438901758A66758CFCC28DD28C0D
:070A4100D2A9D2AFC2B92215
:10000E00EC4D6011E8497017ED33EC3304600DE4EC
:10001E00FCFFFEFD22E933E8330470F80202E81219
:10002E0002B358046009E4CC24815006285009021A
:10003E0002F22840030202EFC0E0EB4A7044B9809E
:10004E0006D0E0FB0202DEEF4E701CBD8008EBFF17
:10005E00EAFEE9FD80EBE98DF0A4FEE5F00200F783
:10006E00E9CDF9EAFEEBFFEF89F0A4FCE5F0CE89CD
:10007E00F0A42EFFE435F0CD89F0A42DFEE435F08A
:10008E008067EF4E7005BD80D780C3EF8BF0A4ACB8
:10009E00F0EE8BF0A42CFCE435F0F8EF8AF0A42CF3
:1000AE00E5F038FCE433CB8DF0A42CFCE5F03BF806
:1000BE00EE8AF0A42CFCE5F038F8E433CF89F0A4F6
:1000CE002CFCE5F038CF3400CE89F0A42FFFE5F0FC
:1000DE003EFEE433C98DF0A42EFEE5F039CD8AF054
:1000EE00A42FFFE5F03EFEE43DFD33D0E0FB5007CC
:1000FE000BBB000F0202F2EC2CFCEF33FFEE33FED3
:06010E00ED33FD0202CA00
:100114000202F2EC5D046005E8590470030202E88F
:100124001202B3580460F6EC4860F2EC7004FDFE71
:10013400FF22C860DB2481C85009C39860025006BE
:100144000202EF9850CAF582E9294B4A7005AB8246
:100154000202DE75F0007C1A7880C3EF9BEE9AED04
:1001640099400DC3EF9BFFEE9AFEED99FDE842F036
:10017400DC23ACF0D0E0FFD0E0FED0E0FDAB822089
:10018400E7101BEB60BAEC2CFCEF33FFEE33FEED13
:1001940033FD0202CAE803F830E705C0F075F00049
:1001A400EF2FFFEE33FEED33FD40B830E7C280AAF7
:1001B40074F8CC6480CCC86480C8F58204604FC3F2
:1001C400EB9FF5F0EA9E42F0E99D42F0E89C45F091
:1001D400603C501DE5825FFFE582D313CB5BCBF41B
:1001E4002B5582FB50280ABA002409B90020088044
:1001F4001DE5825BFBE582D313CF5FCFF4C3132FDE
:100204005582FF50090EBE00050DBD00010CC3EB65
:100214009FF5F0EA9E42F0E99D42F0E89C45F060CB
:0902240007CC4820E701B3EC22ED
:10022D00ED33EC33600A047003BD8004ECB2E7FCDF
:01023D00229E
:10023E0075F020800E75F010800575F0087D007E3B
:10024E00007F003392D530D50312045FEC3340109B
:10025E00EF33FFEE33FEED33FDEC33FCD5F0ED2244
:0E026E00E5F0247EA2D513CC92E7CDCEFF2280
:10027C00EDD2E7CD33EC3392D524814006E4FFFE7A
:10028C00FDFC22FCE4CFCECDCC24E0501174FF80D9
:10029C00EDC3CC13CCCD13CDCE13CECF13CF047076
:0702AC00F030D5DE02045F13
:1002B300E9D2E7C933E833F892D5EDD2E7CD33EC91
:0702C30033FC5002B2D5220A
:1002CA00EC30E7100FBF000C0EBE00080DBD000495
:1002DA000BEB6014A2D5EB13FCED92E7FD2274FF41
:1002EA00FCFDFEFF22E480F8A2D574FF13FC7D809A
:0302FA00E480EFAE
:0300000002068471
:0C068400787FE4F6D8FD75812D0206CBCE
:1002FD00BB010CE58229F582E5833AF583E02250B6
:10030D0006E92582F8E622BBFE06E92582F8E222FF
:0D031D00E58229F582E5833AF583E4932219
:10032A00EF8DF0A4A8F0CF8CF0A428CE8DF0A42EE7
:02033A00FE22A1
:10033C00BC000BBE0029EF8DF084FFADF022E4CCA5
:10034C00F875F008EF2FFFEE33FEEC33FCEE9DEC6E
:10035C00984005FCEE9DFE0FD5F0E9E4CEFD22EDB4
:10036C00F8F5F0EE8420D21CFEADF075F008EF2FFE
:10037C00FFED33FD4007985006D5F0F222C398FDEF
:05038C000FD5F0EA228C
:1003910075F008758200EF2FFFEE33FECD33CDCC23
:1003A10033CCC58233C5829BED9AEC99E5829840A6
:1003B1000CF582EE9BFEED9AFDEC99FC0FD5F0D683
:1003C100E4CEFBE4CDFAE4CCF9A88222B800C1B9AD
:1003D1000059BA002DEC8BF084CFCECDFCE5F0CBEB
:1003E100F97818EF2FFFEE33FEED33FDEC33FCEB24
:1003F10033FB10D703994004EB99FB0FD8E5E4F9DF
:10040100FA227818EF2FFFEE33FEED33FDEC33FCCB
:10041100C933C910D7059BE99A4007EC9BFCE99ABF
:10042100F90FD8E0E4C9FAE4CCFB2275F010EF2F04
:10043100FFEE33FEED33FDCC33CCC833C810D70704
:100441009BEC9AE899400AED9BFDEC9AFCE899F83F
:0E0451000FD5F0DAE4CDFBE4CCFAE4C8F922D2
:0E045F00C3E49FFFE49EFEE49DFDE49CFC22AE
:1006900002046DE493A3F8E493A34003F68001F20F
:1006A00008DFF48029E493A3F85407240CC8C3336B
:1006B000C4540F4420C8834004F456800146F6DF3A
:1006C000E4800B0102040810204080900003E47EC7
:1006D000019360BCA3FF543F30E509541FFEE4932F
:1006E000A360010ECF54C025E060A840B8E493A3F6
:1006F000FAE493A3F8E493A3C8C582C8CAC583CA21
:10070000F0A3C8C582C8CAC583CADFE9DEE780BED8
:0100090000F6
:00000001FF
