:10018A001202227522051200038F23E523640170EF
:10019A00230525532503E5257002F522E525B4013B
:1001AA0003752232E525B4020375224BE525B40313
:1001BA0003752264E525FD7C007F0112026480C676
:03000B0002009A56
:10009A00C0E0C0F0C083C082C0D075D000C000C02C
:0D00AA0001C002C003C004C005C006C007AD
:1000B700758AA4758CFF0524E52475F0648485F0A2
:1000C70024E524C395225004D2908002C290051FD4
:1000D700E51F7002051EC39414E51E9400400975C0
:1000E7001E00751F001201ED0521E5217002052094
:1000F700C394C8E5209400400975200075210012BB
:020107000208EC
:10010900D007D006D005D004D003D002D001D0004A
:0B011900D0D0D082D083D0F0D0E032F4
:10024F00EF4E6010007D027CC7DCFEDDFCEF1F70FF
:04025F00EF1E80EC22
:010263002278
:100222005389F0438901758AA4758CFFC28DD28CE3
:07023200D2A9D2AFC2B9222C
:0601CA00012600012700E0
:05000300E4AF28F52820
:0100080022D5
:10023900E4FF20B1010F20B0027F0220B2027F0348
:0502490020B3027F0458
:01024E00228D
:10020800E4F5298526271202398F26E527600AE5B5
:09021800267006E5276002F528B6
:0102210022BA
:1001D0000C093F065B4F666D7D077F6F0040091578
:0C01E000000A0A0A0A0A0A0A0A010801B9
:09026400AE0574152FF8A6062260
:10012400E4F580EF14B40800505490013C75F003DA
:10013400A4C58325F0C5837302015402015802014A
:100144005C02016002016402016C02017402017C20
:10015400D2A4800ED2A48012D2A48016D2A4801A73
:10016400C2A4D2A3D2A28016C2A4D2A3C2A2800ED9
:10017400C2A4C2A3D2A28006C2A4C2A3C2A274090A
:060184002DF8E6F58022D3
:1001ED0074152508F8E6FD7C00AF081201240508FA
:0A01FD00E508D394084003750801DB
:0102070022D4
:0300000002000EED
:0C000E00787FE4F6D8FD758129020055CA
:10001A0002018AE493A3F8E493A34003F68001F271
:10002A0008DFF48029E493A3F85407240CC8C333E7
:10003A00C4540F4420C8834004F456800146F6DFB6
:10004A00E4800B01020408102040809001CAE47E7B
:10005A00019360BCA3FF543F30E509541FFEE493AB
:10006A00A360010ECF54C025E060A840B8E493A372
:10007A00FAE493A3F8E493A3C8C582C8CAC583CA9D
:10008A00F0A3C8C582C8CAC583CADFE9DEE780BE55
:0101EC000012
:00000001FF
