:0501C90012018080FE20
:03000B000201C02F
:0901C000758A18758CFCB2A53299
:10019700EF4E6010007D027CC7DCFEDDFCEF1F70B8
:0401A700EF1E80ECDB
:0101AB002231
:1000FD00E4F51A20B1137F14FE12019730B1FD7F84
:10010D00147E00120197751A0120B0147F147E0021
:10011D0012019730B0FD7F147E00120197751A02FF
:10012D0020B2147F147E0012019730B2FD7F147E31
:10013D0000120197751A0320B3147F147E0012016B
:10014D009730B3FD7F147E00120197751A04AF1A14
:01015D00227F
:1001AC0011083F065B4F666D7D077F6F777C395E6C
:0301BC0079710056
:10009A00EF14B4080050549000AF75F003A4C58360
:1000AA0025F0C583730200C70200CB0200CF02000D
:1000BA00D30200D70200DF0200E70200EFD2A480D9
:1000CA000ED2A48012D2A48016D2A4801AC2A4D2BC
:1000DA00A3D2A28016C2A4D2A3C2A2800EC2A4C274
:1000EA00A3D2A28006C2A4C2A3C2A274082DF8E6B3
:0300FA00F580226C
:05000300007FE3DFFEB9
:0100080022D5
:04015E00AD07AC0637
:10016200E4FBFAED25E0FFEC33FEC3EB9FEA9E5081
:0D0172000CB2A51200030BBB00010A80E6D1
:01017F00225D
:100180005389F0438901758A66758CFCC28DD28CC7
:07019000D2A9D2AFC2B922CF
:0300000002000EED
:0C000E00787FE4F6D8FD75811A020055D9
:10001A000201C9E493A3F8E493A34003F68001F232
:10002A0008DFF48029E493A3F85407240CC8C333E7
:10003A00C4540F4420C8834004F456800146F6DFB6
:10004A00E4800B01020408102040809001ACE47E99
:10005A00019360BCA3FF543F30E509541FFEE493AB
:10006A00A360010ECF54C025E060A840B8E493A372
:10007A00FAE493A3F8E493A3C8C582C8CAC583CA9D
:10008A00F0A3C8C582C8CAC583CADFE9DEE780BE55
:0101BF00003F
:00000001FF
