:0B032D0041444A204E54432052470038
:100116001202ED7BFF7A03792D7D017F01120278B1
:100126007F9C1200978E228F237C007D0512003063
:10013600EEFB7A00750C037D017F0212029B7FDCC9
:100146001200978E228F237C007D05120030EEFB75
:100156007A00750C037F0212029B7FAC1200978E09
:10016600228F237C007D05120030EEFB7A00750C91
:10017600037D097F0212029B7F0A7E001202D8804D
:010186009FD9
:1002D800EF4E6010007D027CC7DCFEDDFCEF1F7076
:0402E800EF1E80EC99
:0102EC0022EF
:06030100C2A58F80D2A707
:09030700007F027EC7DEFEDFFC70
:0103100022CA
:0A033800C2A6120301C2A7020307C8
:1002BA00CFCDCFCECCCE1200427C007D0A120042B6
:0402CA00ED2430FFF0
:0A02CE00D2A6120301C2A702030723
:1002ED007F381203387F0C1203387F061203387FD4
:0402FD0001020338BF
:10031100EDBF0103148002243F4480FF1203382201
:0A034200AC03120311AF040202CE57
:060278008B088A09890AC7
:10027E00E4FC120311AB08AA09A90A8C827583004B
:0C028E00120003FF60061202CE0C80E993
:01029A002241
:0C0246007F0AEA24FFFDE434FFFC7E0088
:080252008E0D8F0E8C0F8D1034
:10025A00E4FB7F01FEEBC39510E50F6480F8748020
:0D026A0098500AAC0DAD0E1200300B80E86C
:010277002264
:04029B008A0A8B0B35
:10029F00E4FA120311AA0CEAD39400400D1202469D
:0A02AF00AC0AAD0B1202BA1A80ED82
:0102B9002222
:040187008B828A835A
:10018B00E4FAF516F517120311C3E5836480948026
:10019B00400D7F2B1202CE85831685821780107F30
:1001AB002D1202CEC3E49582F517E49583F516AABA
:1001BB0015EAD39400400D120246AC16AD1712028D
:0401CB00BA1A80EDEF
:0101CF00220D
:0401D0008A1A8B1BE1
:1001D400E4FAFC120311AA1CEAD3940040297F100C
:1001E400120248AC1AAD1BCFCDCFCECCCE120042FA
:1001F400EF540FFCC3940AEC5004243080022437DB
:07020400FF1202CE1A80D1A7
:01020B0022D0
:04020C008A1F8B209A
:10021000E4FA120311AA21EAD394004028EA24FF49
:10022000FDE434FFFC7F027E00120252AC1FAD20C1
:10023000CFCDCFCECCCE120042EF54012430FF12EE
:0502400002CE1A80D27D
:010245002296
:020097008F08D0
:10009900E4F509F50AF50BC2B6C2B5F5097E007497
:1000A90080A809088006CEA2E713CE13D8F8FFEF7F
:1000B900550824FF92B4D2B6C2B60509E509B408B9
:1000C900DCE4F509D2B6C2B67F017E001202D8304F
:1000D900B7147E80E4A809088005CEC313CE13D8CF
:1000E900F9420BEE420A0509E509C3941040D5D23D
:1000F900B5E50830E306E50AFF7E0022E50AC4F803
:0C01090054F0C868FEE50BC4540F48FF1A
:0101150022C7
:03000000020321D7
:0C032100787FE4F6D8FD758123020116F8
:10000300BB010CE58229F582E5833AF583E02250B2
:1000130006E92582F8E622BBFE06E92582F8E222FC
:0D002300E58229F582E5833AF583E4932216
:10003000EF8DF0A4A8F0CF8CF0A428CE8DF0A42EE4
:02004000FE229E
:10004200BC000BBE0029EF8DF084FFADF022E4CCA2
:10005200F875F008EF2FFFEE33FEEC33FCEE9DEC6B
:10006200984005FCEE9DFE0FD5F0E9E4CEFD22EDB1
:10007200F8F5F0EE8420D21CFEADF075F008EF2FFB
:10008200FFED33FD4007985006D5F0F222C398FDEC
:050092000FD5F0EA2289
:00000001FF
