:1002660048656C6C6F210057656C636F6D65207413
:080276006F204368696E61000E
:100097001202937B417D017F011202DD7BFF7A0211
:1000A70079667D037F01120206750C027B427A0096
:1000B7007D0A7F01120229750C027BA87AFF7D0D4C
:1000C7007F01120115750C027BA57A007D017F0265
:1000D70012015E750C087BA57A007D047F02120170
:1000E7009A7BDF7D0D7F021202DD7B437D0E7F024F
:1000F7001202DD7BFF7A02796D7D117F0112020604
:0E0107007FF47E0112027E7F181202D380F276
:0602A700C2A58F80D2A762
:0902AD00007F027EC7DEFEDFFCCB
:0102B6002225
:0A02D300C2A61202A7C2A70202ADE4
:10024800CFCDCFCECCCE1200427C007D0A12004228
:04025800ED2430FF62
:0A025C00D2A61202A7C2A70202AD4B
:100293007F381202D37F0C1202D37F061202D37F60
:0402A300010202D37F
:1002B700EDBF0103148002243F4480FF1202D322C2
:0A02DD00AC031202B7AF0402025C8A
:060206008B088A09890A39
:10020C00E4FC1202B7AB08AA09A90A8C8275830018
:0C021C00120003FF600612025C0C80E977
:0102280022B3
:0C01D4007F0AEA24FFFDE434FFFC7E00FB
:0801E0008E0F8F108C118D129F
:1001E800E4FB7F01FEEBC39512E5116480F874808F
:0D01F80098500AAC0FAD101200300B80E8DB
:0102050022D6
:040229008A0A8B0BA7
:10022D00E4FA1202B7AA0CEAD39400400D1201D4DD
:0A023D00AC0AAD0B1202481A80ED66
:010247002294
:040115008B828A83CC
:10011900E4FAF50DF50E1202B7C3E5836480948005
:10012900400D7F2B12025C85830D85820E80107F26
:100139002D12025CC3E49582F50EE49583F50DAAB0
:100149000CEAD39400400D1201D4AC0DAD0E12028D
:04015900481A80EDD3
:01015D00227F
:04015E008A0A8B0B73
:10016200E4FAFC1202B7AA0CEAD3940040297F10E9
:100172001201D6AC0AAD0BCFCDCFCECCCE120042FF
:10018200EF540FFCC3940AEC50042430800224374D
:07019200FF12025C1A80D18C
:010199002243
:04019A008A0A8B0B37
:10019E00E4FA1202B7AA0CEAD394004028EA24FF2C
:1001AE00FDE434FFFC7F027E001201E0AC0AAD0BD1
:1001BE00CFCDCFCECCCE120042EF54012430FF1261
:0501CE00025C1A80D262
:0101D3002209
:10027E00EF4E6010007D027CC7DCFEDDFCEF1F70D0
:04028E00EF1E80ECF3
:010292002249
:030000000202C732
:0C02C700787FE4F6D8FD758112020097E4
:10000300BB010CE58229F582E5833AF583E02250B2
:1000130006E92582F8E622BBFE06E92582F8E222FC
:0D002300E58229F582E5833AF583E4932216
:10003000EF8DF0A4A8F0CF8CF0A428CE8DF0A42EE4
:02004000FE229E
:10004200BC000BBE0029EF8DF084FFADF022E4CCA2
:10005200F875F008EF2FFFEE33FEEC33FCEE9DEC6B
:10006200984005FCEE9DFE0FD5F0E9E4CEFD22EDB1
:10007200F8F5F0EE8420D21CFEADF075F008EF2FFB
:10008200FFED33FD4007985006D5F0F222C398FDEC
:050092000FD5F0EA2289
:00000001FF
