:0603960048656C6C6F006D
:1001900012035E7B417D017F0112038C7BFF7A039A
:1001A00079967D037F011202C1751D037B7B7A0066
:1001B0007D097F01120302751D027BBE7AFF7D0D52
:1001C0007F011201E3751D027BA87A007D017F0289
:1001D00012021D751D087BAA7A007D047F0212029F
:0301E0005680FE48
:10033500EF4E6010007D027CC7DCFEDDFCEF1F7018
:04034500EF1E80EC3B
:010349002291
:10034A0011083F065B4F666D7D077F6F777C395ECC
:03035A00797100B6
:10012300EF14B40800505490013875F003A4C5834C
:1001330025F0C583730201500201540201580201E4
:100143005C020160020168020170020178D2A4809E
:100153000ED2A48012D2A48016D2A4801AC2A4D232
:10016300A3D2A28016C2A4D2A3C2A2800EC2A4C2EA
:10017300A3D2A28006C2A4C2A3C2A274082DF8E629
:0D018300F5807F017E00120335E4F5802237
:06037200C2A58F80D2A796
:09037800007F027EC7DEFEDFFCFF
:010381002259
:0A038200C2A6120372C2A70203789C
:1002E400CFCDCFCECCCE1200427C007D0A1200428C
:0402F400ED2430FFC6
:0A02F800D2A6120372C2A702037817
:10031F00AE07BE0104ED148006BE0209ED243F4472
:06032F0080FF1203822290
:10035E007F381203827F0C1203827F061203827F84
:04036E000102038203
:0A038C00AC0312031FAF040202F8D5
:0602C1008B198A1A891B4B
:1002C70012031FE4FDAB19AA1AA91B8D82758300BF
:0C02D700120003FF60061202F80D80E91F
:0102E30022F8
:0C028E007F0AEA24FFFDE434FFFC7E0040
:08029A008E208F218C228D23A0
:1002A2007F017E00E4FBEBC39523E5226480F874B2
:0E02B2008098500AAC20AD211200300B80E87D
:0102C000221B
:040302008A1B8B1CAB
:1003060012031FAA1DEAD39400400D12028EAC1BE5
:08031600AD1C1202E41A80ED97
:01031E0022BC
:1001E30012031FC3EA64809480400B7F2B1202F832
:1001F3008A1E8B1F800E7F2D1202F8C3E49BF51F0E
:10020300E49AF51EAA1DEAD39400400D12028EACA7
:090213001EAD1F1202E41A80ED79
:01021C0022BF
:04021D008A1B8B1C91
:1002210012031FAA1DEAD3940040297F10120290E5
:10023100AC1BAD1CCFCDCFCECCCE120042EF540FB4
:10024100FEC3940AEE5004243080022437FF1202C8
:04025100F81A80D146
:010255002286
:040256008A1B8B1C58
:10025A0012031FAA1DEAD394004028EA24FFFDE4F2
:10026A0034FFFC7F027E0012029AAC1BAD1CCFCD7C
:10027A00CFCECCCE120042EF54012430FF1202F846
:03028A001A80D205
:01028D00224E
:0300000002009764
:0C009700787FE4F6D8FD7581230200DEBE
:10000300BB010CE58229F582E5833AF583E02250B2
:1000130006E92582F8E622BBFE06E92582F8E222FC
:0D002300E58229F582E5833AF583E4932216
:10003000EF8DF0A4A8F0CF8CF0A428CE8DF0A42EE4
:02004000FE229E
:10004200BC000BBE0029EF8DF084FFADF022E4CCA2
:10005200F875F008EF2FFFEE33FEEC33FCEE9DEC6B
:10006200984005FCEE9DFE0FD5F0E9E4CEFD22EDB1
:10007200F8F5F0EE8420D21CFEADF075F008EF2FFB
:10008200FFED33FD4007985006D5F0F222C398FDEC
:050092000FD5F0EA2289
:1000A300020190E493A3F8E493A34003F68001F2E2
:1000B30008DFF48029E493A3F85407240CC8C3335E
:1000C300C4540F4420C8834004F456800146F6DF2D
:1000D300E4800B010204081020408090034AE47E70
:1000E300019360BCA3FF543F30E509541FFEE49322
:1000F300A360010ECF54C025E060A840B8E493A3E9
:10010300FAE493A3F8E493A3C8C582C8CAC583CA13
:10011300F0A3C8C582C8CAC583CADFE9DEE780BECB
:01035D00009F
:00000001FF
