:10000E001202A11200038F28E528B4010CE5277017
:10001E00047F0180027F008F27E528B40209E4F5F2
:10002E0027F526F524F525E52575F00A84FD7C00D7
:10003E007F011202E3E52575F00A84E5F0FD7C00F0
:10004E007F021202E37D0B7C007F031202E3E524A4
:10005E0075F00A84FD7C007F041202E3E52475F03E
:10006E000A84E5F0FD7C007F051202E37D0B7C0027
:10007E007F061202E3E52675F00A84FD7C007F07F9
:10008E001202E3E52675F00A84E5F0FD7C007F0898
:06009E001202E302001152
:10022200E52760220526E526C394644019E4F526F5
:100232000524E524943C400EE4F5240525E52594A7
:070242003C4003E4F5252216
:03000B000200A44C
:1000A400C0E0C0F0C083C082C0D075D000C000C022
:0D00B40001C002C003C004C005C006C007A3
:1000C100758A18758CFC051FE51F7002051EC39407
:1000D10014E51E94004009751E00751F0012028769
:1000E1000521E52170020520C39402E5209400401A
:1000F1000975200075210012026C0523E5237002A9
:100101000522C3940AE52294004009752200752353
:0401110000120222B4
:10011500D007D006D005D004D003D002D001D0003E
:0B012500D0D0D082D083D0F0D0E032E8
:1002CE00EF4E6010007D027CC7DCFEDDFCEF1F7080
:0402DE00EF1E80ECA3
:0102E20022F9
:06024900012900012A005A
:05000300E4AF2BF52B1A
:0100080022D5
:1002B800E4FF20B1010F20B0027F0220B2027F03C9
:0502C80020B3027F04D9
:0102CD00220E
:10028700E4F52C85292A1202B88F29E52A600AE5A8
:09029700297006E52A6002F52B2E
:0102A000223B
:1002A1005389F0438901758A66758CFCC28DD28CA5
:0702B100D2A9D2AFC2B922AD
:10024F000C093F065B4F666D7D077F6F00400915F8
:0C025F00000A0A0A0A0A0A0A0A01080139
:0902E300AE0574152FF8A60622E1
:1001BC00E4F580EF14B4080050549001D475F003AA
:1001CC00A4C58325F0C583730201EC0201F0020182
:1001DC00F40201F80201FC02020402020C020214F5
:1001EC00D2A4800ED2A48012D2A48016D2A4801ADB
:1001FC00C2A4D2A3D2A28016C2A4D2A3C2A2800E41
:10020C00C2A4C2A3D2A28006C2A4C2A3C2A2740971
:06021C002DF8E6F580223A
:10026C0074152508F8E6FD7C00AF081201BC0508E2
:0A027C00E508D3940840037508015B
:010286002255
:03000000020130CA
:0C013000787FE4F6D8FD75812C02017781
:10013C0002000EE493A3F8E493A34003F68001F2CB
:10014C0008DFF48029E493A3F85407240CC8C333C4
:10015C00C4540F4420C8834004F456800146F6DF93
:10016C00E4800B0102040810204080900249E47ED8
:10017C00019360BCA3FF543F30E509541FFEE49388
:10018C00A360010ECF54C025E060A840B8E493A34F
:10019C00FAE493A3F8E493A3C8C582C8CAC583CA7A
:1001AC00F0A3C8C582C8CAC583CADFE9DEE780BE32
:01026B000092
:00000001FF
