:1008FC0020200020202D20202D20200020203A20F8
:05090C00203A2020004C
:1005B80012049FE519FB3395E0FA750D027D017F62
:1005C800011208B2E51AFB3395E0FA750D027D04B5
:1005D8007F011208B2E51BFB3395E0FA750D027D29
:1005E800077F011208B2E51CFB3395E0FA750D028E
:1005F8007D017F021208B2E51DFB3395E0FA750D07
:10060800027D047F021208B2E51EFB3395E0FA75FD
:090618000D027D077F020208B209
:10000E00E4F508E525B4020B0522E52275F0068419
:10001E0085F022E525640360030200EB74192522A6
:10002E00F806D3E519648094E34003E4F519D3E5AB
:10003E001A6480948C4003751A01E51A64016023DA
:10004E00E51A6403601DE51A64056017E51A640776
:10005E006011E51A6408600BE51A640A6005E51A7A
:10006E00B40C0BD3E51B6480949F404D8048E51A79
:10007E0064046011E51A6406600BE51A64096005F4
:10008E00E51AB40B0BD3E51B6480949E402B80269F
:10009E00E51AB40224E51975F0041203E9AFF0EF86
:1000AE00700BD3E51B6480949D400E8009D3E51B35
:1000BE006480949C4003751B01D3E51C6480949767
:1000CE004003E4F51CD3E51D648094BB4003E4F5C6
:1000DE001DD3E51E648094BB4003E4F51EE5256444
:1000EE000460030201E674192522F816C3E51964AB
:1000FE008094805003751963C3E51A64809481500F
:10010E0003751A0CE51A64016023E51A6403601D79
:10011E00E51A64056017E51A64076011E51A6408AC
:10012E00600BE51A640A6005E51AB40C17C3E51BEB
:10013E00648094815003751B1FD3E51B6480949FCC
:10014E004072806DE51A64046011E51A6406600B56
:10015E00E51A64096005E51AB40B17C3E51B648044
:10016E0094815003751B1ED3E51B6480949E4044FE
:10017E00803FE51A6402703CE51975F0041203E93C
:10018E00AFF0EF7017C3E51B648094815003751BAD
:10019E001DD3E51B6480949D401A8015C3E51B6436
:1001AE008094815003751B1CD3E51B6480949C4086
:1001BE0003751B01C3E51C648094805003751C17E6
:1001CE00C3E51D648094805003751D3BC3E51E641A
:1001DE008094805003751E3BE4F508E508D3940225
:1001EE005036E522B50817E524B40112E50875F07E
:1001FE0003A404FD7BFF7A0879FC7F018035E508B6
:10020E0075F003A404FD74192508F8E6FB3395E098
:10021E00FA750D027F018039E522B5081BE524B47D
:10022E000116E50875F003A424F8FD7BFF7A087922
:10023E00FC7F02120871801CE50875F003A424F8F7
:10024E00FD74192508F8E6FB3395E0FA750D027F6B
:10025E00021208B20508E508C3940650030201E92C
:01026E00226D
:100682001209261200031208CF12026F7BFF7A08AA
:1006920079FF7D017F011208717BFF7A0979087D5C
:1006A200017F021208711206218F25E525B4011679
:1006B200E5237007752301F522800BE523B40106BB
:1006C200E4F52312026FE5231460080470D81205C2
:0806D200B880D312000E80CEA7
:03000B0002079455
:09079400C0E0C0D075D000C00720
:10079D00758A18758CFC0521E52170020520C3941E
:1007AD00F4E52094014012752000752100E52470B8
:0907BD00047F0180027F008F24FB
:0707C600D007D0D0D0E032D3
:06093A00C2A58F80D2A7C8
:09094000007F027EC7DEFEDFFC31
:01094900228B
:0A094A00C2A612093AC2A702094032
:10089400CFCDCFCECCCE12044A7C007D0A12044ABE
:0408A400ED2430FF10
:0A08A800D2A612093AC2A7020940C5
:1008E600AE07BE0104ED148006BE0209ED243F44A6
:0608F60080FF12094A22F6
:100926007F3812094A7F0C12094A7F0612094A7F4C
:040936000102094A67
:0A095400AC031208E6AF040208A885
:060871008B098A0A890BC5
:100877001208E6E4FDAB09AA0AA90B8D827583006D
:0C08870012040BFF60061208A80D80E9A7
:010893002242
:0C083E007F0AEA24FFFDE434FFFC7E008A
:08084A008E0E8F0F8C108D1132
:100852007F017E00E4FBEBC39511E5106480F87420
:0E0862008098500AAC0EAD0F1204380B80E8DF
:010870002265
:0408B2008A0B8B0C16
:1008B6001208E6AA0DEAD39400400D12083EAC0BCE
:0808C600AD0C1208941A80ED3C
:0108CE002207
:10075A001208E6C3EA64809480400B7F2B1208A833
:10076A008A178B18800E7F2D1208A8C3E49BF518F0
:10077A00E49AF517AA16EAD39400400D12083EAC83
:09078A0017AD181208941A80ED55
:010793002243
:0407CD008A288B29C2
:1007D1001208E6AA2AEAD3940040297F10120840A1
:1007E100AC28AD29CFCDCFCECCCE12044AEF540FD9
:1007F100FEC3940AEE5004243080022437FF12080D
:04080100A81A80D1E0
:0108050022D0
:040806008A2D8B2E7E
:10080A001208E6AA2FEAD394004028EA24FFFDE45E
:10081A0034FFFC7F027E0012084AAC2DAD2ECFCDEC
:10082A00CFCECCCE12044AEF54012430FF1208A8CE
:03083A001A80D24F
:01083D002298
:09095E0007191904011020000220
:05000300C2B5C2B622E7
:0506DA002DFDEE3CFCCB
:0406DF00AB05AA04B9
:1006E300E4FDD2B5EFA805088002C313D8FC13922A
:1006F300B4D2B6C2B60DBD08EBE4FDEBAE02A8055D
:10070300088006CEA2E713CE13D8F81392B4D2B65C
:08071300C2B60DBD08E5C2B538
:01071B0022BB
:10071C00E4FEFDD2B5430701EFA806088002C3131F
:10072C00D8FC1392B4C2B6D2B60EBE08EBE4FED21D
:10073C00B6C2B630B40D7401A806088002C333D813
:0D074C00FC42050EBE08E8C2B5C2B4AF0500
:01075900227D
:10026F00E4FDFC7F8E1206DFE51975F00A1203E933
:10027F00FF3395E0FEEFC4F8540FC868FFEEC45487
:10028F00F048FEE51975F00A1203E9ADF0ED33956C
:10029F00E0FCEF7F8C1206DAE51A75F00A1203E91B
:1002AF00FF3395E0FEEFC4F8540FC868FFEEC45457
:1002BF00F048FEE51A75F00A1203E9ADF0ED33953B
:1002CF00E0FCEF7F881206DAE51B75F00A1203E9EE
:1002DF00FF3395E0FEEFC4F8540FC868FFEEC45427
:1002EF00F048FEE51B75F00A1203E9ADF0ED33950A
:1002FF00E0FCEF2DFDEE3CFC7F861206DFE51C7562
:10030F00F00A1203E9FF3395E0FEEFC4F8540FC86B
:10031F0068FFEEC454F048FEE51C75F00A1203E9BD
:10032F00ADF0ED3395E0FCEF2DFDEE3CFC7F84123C
:10033F0006DFE51D75F00A1203E9FF3395E0FEEFC6
:10034F00C4F8540FC868FFEEC454F048FEE51D759D
:10035F00F00A1203E9ADF0ED3395E0FCEF2DFDEE61
:10036F003CFC7F821206DFE51E75F00A1203E9FFDF
:10037F003395E0FEEFC4F8540FC868FFEEC454F095
:10038F0048FEE51E75F00A1203E9ADF0ED3395E076
:10039F00FCEF2DFDEE3CFC7F801206DFE51F75F0B4
:1003AF000A1203E9FF3395E0FEEFC4F8540FC86853
:1003BF00FFEEC454F048FEE51F75F00A1203E9ADD5
:1003CF00F0ED3395E0FCEF2DFDEE3CFC7F8A12063D
:0A03DF00DF7D807C007F8E0206DFC8
:10049F007F8C12071CEFC4540F75F00AA4FEEF54A3
:1004AF000F2EF5197F8812071CEFC4540F75F00A31
:1004BF00A4FEEF540F2EF51A7F8612071CEFC454BB
:1004CF000F75F00AA4FEEF540F2EF51B7F84120751
:1004DF001CEFC4540F75F00AA4FEEF540F2EF51C39
:1004EF007F8212071CEFC4540F75F00AA4FEEF545D
:1004FF000F2EF51D7F8012071CEFC4540F75F00AE5
:10050F00A4FEEF540F2EF51E7F8A12071CEFC45462
:0C051F000F75F00AA4FEEF540F2EF51F1C
:01052B0022AD
:10091100EF4E6010007D027CC7DCFEDDFCEF1F7036
:04092100EF1E80EC59
:0109250022AF
:10062100E4F50820B1137F14FE12091130B1FD7FEA
:10063100147E0012091175080120B0147F147E0088
:1006410012091130B0FD7F147E00120911750802E4
:1006510020B2147F147E0012091130B2FD7F147E86
:100661000012091175080320B3147F147E001209CA
:100671001130B3FD7F147E00120911750804AF0813
:010681002256
:1008CF005389F0438901758A66758CFCC28DD28C71
:0708DF00D2A9D2AFC2B92279
:0300000002052CCA
:0C052C00787FE4F6D8FD75812F0205737E
:1003E900C2D530F707B2D563F0FF05F030E70CB29C
:1003F900D5F4048463F0FF05F080018430D502F45C
:020409000422CB
:10040B00BB010CE58229F582E5833AF583E02250A6
:10041B0006E92582F8E622BBFE06E92582F8E222F0
:0D042B00E58229F582E5833AF583E493220A
:10043800EF8DF0A4A8F0CF8CF0A428CE8DF0A42ED8
:02044800FE2292
:10044A00BC000BBE0029EF8DF084FFADF022E4CC96
:10045A00F875F008EF2FFFEE33FEEC33FCEE9DEC5F
:10046A00984005FCEE9DFE0FD5F0E9E4CEFD22EDA5
:10047A00F8F5F0EE8420D21CFEADF075F008EF2FEF
:10048A00FFED33FD4007985006D5F0F222C398FDE0
:05049A000FD5F0EA227D
:10053800020682E493A3F8E493A34003F68001F251
:1005480008DFF48029E493A3F85407240CC8C333C4
:10055800C4540F4420C8834004F456800146F6DF93
:10056800E4800B010204081020408090095EE47EBC
:10057800019360BCA3FF543F30E509541FFEE49388
:10058800A360010ECF54C025E060A840B8E493A34F
:10059800FAE493A3F8E493A3C8C582C8CAC583CA7A
:1005A800F0A3C8C582C8CAC583CADFE9DEE780BE32
:01096700008F
:00000001FF
