:1001FF0057726974652046696E6973680020202004
:10020F00202020202020202020004C617374204EBD
:10021F00756D3A00526561642046696E69736800B6
:10022F0020202020202020202020202020202000DF
:0C023F0020202020202020202020200053
:1000030012044F750C05AB23AA227D017F01120454
:100013000712019E8F24E524B401150523E52370FF
:10002300020522750C05FBAA227D017F011204073C
:10003300E524B40216E523152370021522750C0579
:10004300AB23AA227D017F01120407E52464037018
:1000530040FCAD23FF1203827F057E0012043AE5C4
:1000630022FD7C007F011203827F057E0012043A89
:100073007BFF7A0179FF7D017F021203A67FD07E89
:100083000712043A7BFF7A02790C7D017F02120387
:10009300A6E52464046003020014FF1203297522F9
:1000A300008F237F01120329EFFEEE42227BFF7AAA
:1000B3000279197D017F011203A6750C05AB23AAF2
:1000C300227D0A7F011204077BFF7A0279237D01D7
:1000D3007F021203A67FD07E0712043A750C05AB8C
:1000E30023AA227D017F011204077BFF7A02792F65
:1000F3007D067F011203A67BFF7A02793F7D017F94
:07010300021203A602001422
:06046300C2A58F80D2A7A4
:09046900007F027EC7DEFEDFFC0D
:010472002267
:0A048B00C2A6120463C2A7020469AE
:1003E900CFCDCFCECCCE1201497C007D0A12014976
:0403F900ED2430FFC0
:0A03FD00D2A6120463C2A70204692D
:10042400AE07BE0104ED148006BE0209ED243F446C
:0604340080FF12048B2280
:10044F007F3812048B7F0C12048B7F0612048B7F74
:04045F000102048B07
:0A049500AC03120424AF040203FDBF
:0603A6008B088A09890A98
:1003AC00120424E4FDAB08AA09A90A8D8275830006
:0C03BC0012010AFF60061203FD0D80E92B
:0103C8002212
:0C02F6007F0AEA24FFFDE434FFFC7E00D8
:080302008E0D8F0E8C0F8D1083
:10030A007F017E00E4FBEBC39510E50F6480F8746F
:0E031A008098500AAC0DAD0E1201370B80E832
:0103280022B2
:040407008A0A8B0BC7
:10040B00120424AA0CEAD39400400D1202F6AC0A93
:08041B00AD0B1203E91A80ED9C
:0104230022B6
:10024B00120424C3EA64809480400B7F2B1203FDBD
:10025B008A168B17800E7F2D1203FDC3E49BF517B7
:10026B00E49AF516AA15EAD39400400D1202F6ACE7
:09027B0016AD171203E91A80ED1B
:010284002257
:040285008A1A8B1B2B
:10028900120424AA1CEAD3940040297F101202F810
:10029900AC1AAD1BCFCDCFCECCCE120149EF540F46
:1002A900FEC3940AEE5004243080022437FF12035F
:0402B900FD1A80D1D9
:0102BD00221E
:0402BE008A1F8B20E8
:1002C200120424AA21EAD394004028EA24FFFDE480
:1002D20034FFFC7F027E00120302AC1FAD20CFCDA3
:1002E200CFCECCCE120149EF54012430FF1203FDD0
:0302F2001A80D29D
:0102F50022E6
:10043A00EF4E6010007D027CC7DCFEDDFCEF1F7012
:04044A00EF1E80EC35
:01044E00228B
:10019E00E4F50820B1137F14FE12043A30B1FD7F4E
:1001AE00147E0012043A75080120B0147F147E00EC
:1001BE0012043A30B0FD7F147E0012043A75080224
:1001CE0020B2147F147E0012043A30B2FD7F147EEA
:1001DE000012043A75080320B3147F147E00120433
:1001EE003A30B3FD7F147E0012043A750804AF084E
:0101FE0022DE
:100382008F088C098D0A1204A97FA0120359120446
:1003920073AF08120359120473AF0A1203591204FD
:0403A200730204B22C
:020329008F083B
:10032B001204A97FA0120359120473AF08120359C8
:10033B001204731204A97FA112035912047312033E
:0D034B00C98F097F0112049F1204B2AF098F
:010358002282
:0904A900D2A0D2A1C2A0C2A1227E
:0704B200C2A0D2A1D2A022DA
:02035900AD07EE
:10035B00E4FB74807E00A803088006CEA2E713CED0
:10036B0013D8F8FFEDF582EF558224FF92A0D2A1AE
:06037B00C2A10BBB08DC6F
:010381002259
:1003C900E4FFFED2A0D2A130A00D7480A807088056
:0F03D90002C313D8FC4206C2A10FBF08E8AF064B
:0103E80022F2
:0A049F00EF24FF92A0D2A1C2A12217
:0B047300E4D2A0D2A1A2A033FFC2A1DE
:01047E00225B
:0300000002047F78
:0C047F00787FE4F6D8FD758125020003AB
:10010A00BB010CE58229F582E5833AF583E02250AA
:10011A0006E92582F8E622BBFE06E92582F8E222F4
:0D012A00E58229F582E5833AF583E493220E
:10013700EF8DF0A4A8F0CF8CF0A428CE8DF0A42EDC
:02014700FE2296
:10014900BC000BBE0029EF8DF084FFADF022E4CC9A
:10015900F875F008EF2FFFEE33FEEC33FCEE9DEC63
:10016900984005FCEE9DFE0FD5F0E9E4CEFD22EDA9
:10017900F8F5F0EE8420D21CFEADF075F008EF2FF3
:10018900FFED33FD4007985006D5F0F222C398FDE4
:050199000FD5F0EA2281
:00000001FF
