:10000300000000000000000008103F52A462BF205F
:1000130034220010113A549A114052597710003883
:100023002838013A4D7F4808000000000000000016
:10003300000E1B7F7F1B0E0000040C187F7F1B0E1E
:1000430000080C057F7F1E0CC00041221A7C7D1A1C
:10005300006061120A7E7F0800060E080B3E3E0B0D
:1000630000030B080B3E3E0B00060E08093F3E0B38
:10007300000E137E7E1F0E0008137E7E121D0C00E1
:1000830009127E7F1013030009127E7F101C0C00DF
:10009300000C157E7E170E000030380D7E7F1D0884
:1000A300C0C0301B7C7F0800000037F8FA34000022
:1000B30000001B7C7C1A01000000091E7C7F1800D5
:1000C30000001B7C7C1B00000000091E7C7F1800C5
:1000D30000001B7C7C1B00000810167C7F100800AE
:1000E3000010137C7E1800000008137C7F101000A2
:1000F300000812FCFD3A0000000812FCFC2210006C
:10010300000061127C7F106000002011127C7E19B8
:10011300000000310A7C7E0D00002011127C7E1944
:10012300000000310A7C7E0D00002011127C7E1934
:10013300000000310A7C7E0D00002011127C7E1924
:08014300000000310A7C7E0D72
:10014B00E4F50AF509120215E4F508E50804FFE5E4
:10015B0009FDE5082DFDE433FC74332DF5827400A5
:10016B003CF583E493FD7C001201CC0508E508C344
:10017B00940840D7050AE50AD3941E40CBE4F50A50
:10018B0074082509F509D394187480948140B9E457
:04019B00F50980B42E
:1001F400EF4E6010007D027CC7DCFEDDFCEF1F705B
:04020400EF1E80EC7D
:0102080022D3
:05021500C2B6C2B522D3
:02019F00AD07AA
:1001A100E4FB74807E00A803088006CEA2E713CE8C
:1001B10013D8F8FFEDF582EF558224FF92B4D2B641
:0A01C100C2B60BBB08DCD2B5C2B514
:0101CB002211
:1001CC00AA07AF0512019FEA14FF747F7EFFA807F0
:1001DC00088006CEA2E713CE13D8F8F5807F017EF7
:0801EC00001201F47580FF22EE
:03000000020209F0
:0C020900787FE4F6D8FD75810A02014BF5
:00000001FF
